{
  "contractName": "Crowdfunding",
  "abi": [
    {
      "anonymous": false,
      "inputs": [
        {
          "indexed": false,
          "internalType": "uint256",
          "name": "campaignId",
          "type": "uint256"
        },
        {
          "indexed": false,
          "internalType": "address",
          "name": "creator",
          "type": "address"
        },
        {
          "indexed": false,
          "internalType": "string",
          "name": "title",
          "type": "string"
        },
        {
          "indexed": false,
          "internalType": "uint256",
          "name": "goal",
          "type": "uint256"
        }
      ],
      "name": "CampaignCreated",
      "type": "event"
    },
    {
      "anonymous": false,
      "inputs": [
        {
          "indexed": false,
          "internalType": "uint256",
          "name": "campaignId",
          "type": "uint256"
        },
        {
          "indexed": false,
          "internalType": "address",
          "name": "contributor",
          "type": "address"
        },
        {
          "indexed": false,
          "internalType": "uint256",
          "name": "amount",
          "type": "uint256"
        }
      ],
      "name": "ContributionMade",
      "type": "event"
    },
    {
      "anonymous": false,
      "inputs": [
        {
          "indexed": false,
          "internalType": "uint256",
          "name": "campaignId",
          "type": "uint256"
        },
        {
          "indexed": false,
          "internalType": "uint256",
          "name": "amount",
          "type": "uint256"
        }
      ],
      "name": "FundsWithdrawn",
      "type": "event"
    },
    {
      "anonymous": false,
      "inputs": [
        {
          "indexed": false,
          "internalType": "uint256",
          "name": "campaignId",
          "type": "uint256"
        },
        {
          "indexed": false,
          "internalType": "address",
          "name": "contributor",
          "type": "address"
        },
        {
          "indexed": false,
          "internalType": "uint256",
          "name": "amount",
          "type": "uint256"
        }
      ],
      "name": "RefundIssued",
      "type": "event"
    },
    {
      "inputs": [
        {
          "internalType": "uint256",
          "name": "",
          "type": "uint256"
        }
      ],
      "name": "campaigns",
      "outputs": [
        {
          "internalType": "address payable",
          "name": "creator",
          "type": "address"
        },
        {
          "internalType": "string",
          "name": "title",
          "type": "string"
        },
        {
          "internalType": "string",
          "name": "description",
          "type": "string"
        },
        {
          "internalType": "uint256",
          "name": "goal",
          "type": "uint256"
        },
        {
          "internalType": "uint256",
          "name": "deadline",
          "type": "uint256"
        },
        {
          "internalType": "uint256",
          "name": "amountRaised",
          "type": "uint256"
        },
        {
          "internalType": "bool",
          "name": "completed",
          "type": "bool"
        },
        {
          "internalType": "uint256",
          "name": "contributorsCount",
          "type": "uint256"
        }
      ],
      "stateMutability": "view",
      "type": "function",
      "constant": true
    },
    {
      "inputs": [
        {
          "internalType": "string",
          "name": "_title",
          "type": "string"
        },
        {
          "internalType": "string",
          "name": "_description",
          "type": "string"
        },
        {
          "internalType": "uint256",
          "name": "_goal",
          "type": "uint256"
        },
        {
          "internalType": "uint256",
          "name": "_duration",
          "type": "uint256"
        }
      ],
      "name": "createCampaign",
      "outputs": [],
      "stateMutability": "nonpayable",
      "type": "function"
    },
    {
      "inputs": [
        {
          "internalType": "uint256",
          "name": "_campaignId",
          "type": "uint256"
        }
      ],
      "name": "contribute",
      "outputs": [],
      "stateMutability": "payable",
      "type": "function",
      "payable": true
    },
    {
      "inputs": [
        {
          "internalType": "uint256",
          "name": "_campaignId",
          "type": "uint256"
        }
      ],
      "name": "withdrawFunds",
      "outputs": [],
      "stateMutability": "nonpayable",
      "type": "function"
    },
    {
      "inputs": [
        {
          "internalType": "uint256",
          "name": "_campaignId",
          "type": "uint256"
        }
      ],
      "name": "refund",
      "outputs": [],
      "stateMutability": "nonpayable",
      "type": "function"
    },
    {
      "inputs": [],
      "name": "getCampaignCount",
      "outputs": [
        {
          "internalType": "uint256",
          "name": "",
          "type": "uint256"
        }
      ],
      "stateMutability": "view",
      "type": "function",
      "constant": true
    },
    {
      "inputs": [
        {
          "internalType": "uint256",
          "name": "_campaignId",
          "type": "uint256"
        }
      ],
      "name": "getCampaign",
      "outputs": [
        {
          "internalType": "address",
          "name": "",
          "type": "address"
        },
        {
          "internalType": "string",
          "name": "",
          "type": "string"
        },
        {
          "internalType": "string",
          "name": "",
          "type": "string"
        },
        {
          "internalType": "uint256",
          "name": "",
          "type": "uint256"
        },
        {
          "internalType": "uint256",
          "name": "",
          "type": "uint256"
        },
        {
          "internalType": "uint256",
          "name": "",
          "type": "uint256"
        },
        {
          "internalType": "bool",
          "name": "",
          "type": "bool"
        },
        {
          "internalType": "uint256",
          "name": "",
          "type": "uint256"
        }
      ],
      "stateMutability": "view",
      "type": "function",
      "constant": true
    },
    {
      "inputs": [
        {
          "internalType": "uint256",
          "name": "_campaignId",
          "type": "uint256"
        },
        {
          "internalType": "address",
          "name": "_contributor",
          "type": "address"
        }
      ],
      "name": "getContribution",
      "outputs": [
        {
          "internalType": "uint256",
          "name": "",
          "type": "uint256"
        }
      ],
      "stateMutability": "view",
      "type": "function",
      "constant": true
    }
  ],
  "bytecode": "0x608060405234801561001057600080fd5b50611d26806100206000396000f3fe60806040526004361061007b5760003560e01c80636caa92181161004e5780636caa92181461015a578063a318f26914610185578063c1cbbca7146101ae578063e081dbf9146101ca5761007b565b8063141961bc14610080578063155dd5ee146100c4578063278ecde1146100ed5780635598f8cc14610116575b600080fd5b34801561008c57600080fd5b506100a760048036038101906100a29190610f3e565b610207565b6040516100bb989796959493929190611066565b60405180910390f35b3480156100d057600080fd5b506100eb60048036038101906100e69190610f3e565b61039c565b005b3480156100f957600080fd5b50610114600480360381019061010f9190610f3e565b610606565b005b34801561012257600080fd5b5061013d60048036038101906101389190610f3e565b6108ac565b604051610151989796959493929190611113565b60405180910390f35b34801561016657600080fd5b5061016f610aab565b60405161017c919061119f565b60405180910390f35b34801561019157600080fd5b506101ac60048036038101906101a791906112ef565b610ab7565b005b6101c860048036038101906101c39190610f3e565b610be4565b005b3480156101d657600080fd5b506101f160048036038101906101ec91906113ba565b610e41565b6040516101fe919061119f565b60405180910390f35b6000818154811061021757600080fd5b90600052602060002090600902016000915090508060000160009054906101000a900473ffffffffffffffffffffffffffffffffffffffff169080600101805461026090611429565b80601f016020809104026020016040519081016040528092919081815260200182805461028c90611429565b80156102d95780601f106102ae576101008083540402835291602001916102d9565b820191906000526020600020905b8154815290600101906020018083116102bc57829003601f168201915b5050505050908060020180546102ee90611429565b80601f016020809104026020016040519081016040528092919081815260200182805461031a90611429565b80156103675780601f1061033c57610100808354040283529160200191610367565b820191906000526020600020905b81548152906001019060200180831161034a57829003601f168201915b5050505050908060030154908060040154908060050154908060060160009054906101000a900460ff16908060070154905088565b60008054905081106103e3576040517f08c379a00000000000000000000000000000000000000000000000000000000081526004016103da906114a6565b60405180910390fd5b60008082815481106103f8576103f76114c6565b5b906000526020600020906009020190508060000160009054906101000a900473ffffffffffffffffffffffffffffffffffffffff1673ffffffffffffffffffffffffffffffffffffffff163373ffffffffffffffffffffffffffffffffffffffff161461049a576040517f08c379a000000000000000000000000000000000000000000000000000000000815260040161049190611541565b60405180910390fd5b8060030154816005015410156104e5576040517f08c379a00000000000000000000000000000000000000000000000000000000081526004016104dc906115ad565b60405180910390fd5b8060060160009054906101000a900460ff1615610537576040517f08c379a000000000000000000000000000000000000000000000000000000000815260040161052e90611619565b60405180910390fd5b60018160060160006101000a81548160ff0219169083151502179055506000816005015490508160000160009054906101000a900473ffffffffffffffffffffffffffffffffffffffff1673ffffffffffffffffffffffffffffffffffffffff166108fc829081150290604051600060405180830381858888f193505050501580156105c7573d6000803e3d6000fd5b507fd66662c0ded9e58fd31d5e44944bcfd07ffc15e6927ecc1382e7941cb7bd24c483826040516105f9929190611639565b60405180910390a1505050565b600080549050811061064d576040517f08c379a0000000000000000000000000000000000000000000000000000000008152600401610644906114a6565b60405180910390fd5b6000808281548110610662576106616114c6565b5b9060005260206000209060090201905080600401544210156106b9576040517f08c379a00000000000000000000000000000000000000000000000000000000081526004016106b0906116ae565b60405180910390fd5b8060030154816005015410610703576040517f08c379a00000000000000000000000000000000000000000000000000000000081526004016106fa9061171a565b60405180910390fd5b8060060160009054906101000a900460ff1615610755576040517f08c379a000000000000000000000000000000000000000000000000000000000815260040161074c90611786565b60405180910390fd5b60008160080160003373ffffffffffffffffffffffffffffffffffffffff1673ffffffffffffffffffffffffffffffffffffffff168152602001908152602001600020549050600081116107de576040517f08c379a00000000000000000000000000000000000000000000000000000000081526004016107d5906117f2565b60405180910390fd5b60008260080160003373ffffffffffffffffffffffffffffffffffffffff1673ffffffffffffffffffffffffffffffffffffffff168152602001908152602001600020819055503373ffffffffffffffffffffffffffffffffffffffff166108fc829081150290604051600060405180830381858888f1935050505015801561086b573d6000803e3d6000fd5b507f7a482fdeb6bc9a1376f597068a214a7a39472bb2eff1b8cad21ba04f49ddca1b83338360405161089f93929190611812565b60405180910390a1505050565b60006060806000806000806000808054905089106108ff576040517f08c379a00000000000000000000000000000000000000000000000000000000081526004016108f6906114a6565b60405180910390fd5b6000808a81548110610914576109136114c6565b5b906000526020600020906009020190508060000160009054906101000a900473ffffffffffffffffffffffffffffffffffffffff1681600101826002018360030154846004015485600501548660060160009054906101000a900460ff16876007015486805461098390611429565b80601f01602080910402602001604051908101604052809291908181526020018280546109af90611429565b80156109fc5780601f106109d1576101008083540402835291602001916109fc565b820191906000526020600020905b8154815290600101906020018083116109df57829003601f168201915b50505050509650858054610a0f90611429565b80601f0160208091040260200160405190810160405280929190818152602001828054610a3b90611429565b8015610a885780601f10610a5d57610100808354040283529160200191610a88565b820191906000526020600020905b815481529060010190602001808311610a6b57829003601f168201915b505050505095509850985098509850985098509850985050919395975091939597565b60008080549050905090565b6000806001816001815401808255809150500390600052602060002090600902019050338160000160006101000a81548173ffffffffffffffffffffffffffffffffffffffff021916908373ffffffffffffffffffffffffffffffffffffffff16021790555084816001019081610b2e91906119f5565b5083816002019081610b4091906119f5565b508281600301819055508142610b569190611af6565b81600401819055506000816005018190555060008160060160006101000a81548160ff021916908315150217905550600081600701819055507f825fb10f7650ed27414d6f86acdf7d5946927d9b25001f045f1a2435deec02fe6001600080549050610bc29190611b2a565b338786604051610bd59493929190611b5e565b60405180910390a15050505050565b6000805490508110610c2b576040517f08c379a0000000000000000000000000000000000000000000000000000000008152600401610c22906114a6565b60405180910390fd5b6000808281548110610c4057610c3f6114c6565b5b9060005260206000209060090201905080600401544210610c96576040517f08c379a0000000000000000000000000000000000000000000000000000000008152600401610c8d90611bf6565b60405180910390fd5b8060060160009054906101000a900460ff1615610ce8576040517f08c379a0000000000000000000000000000000000000000000000000000000008152600401610cdf90611786565b60405180910390fd5b60003411610d2b576040517f08c379a0000000000000000000000000000000000000000000000000000000008152600401610d2290611c88565b60405180910390fd5b60008160080160003373ffffffffffffffffffffffffffffffffffffffff1673ffffffffffffffffffffffffffffffffffffffff1681526020019081526020016000205403610d8f57806007016000815480929190610d8990611ca8565b91905055505b348160080160003373ffffffffffffffffffffffffffffffffffffffff1673ffffffffffffffffffffffffffffffffffffffff1681526020019081526020016000206000828254610de09190611af6565b9250508190555034816005016000828254610dfb9190611af6565b925050819055507f0a4a91237423e0a1766a761c7cb029311d8b95d6b1b81db1b949a70c98b4e08e823334604051610e3593929190611812565b60405180910390a15050565b600080805490508310610e89576040517f08c379a0000000000000000000000000000000000000000000000000000000008152600401610e80906114a6565b60405180910390fd5b60008381548110610e9d57610e9c6114c6565b5b906000526020600020906009020160080160008373ffffffffffffffffffffffffffffffffffffffff1673ffffffffffffffffffffffffffffffffffffffff16815260200190815260200160002054905092915050565b6000604051905090565b600080fd5b600080fd5b6000819050919050565b610f1b81610f08565b8114610f2657600080fd5b50565b600081359050610f3881610f12565b92915050565b600060208284031215610f5457610f53610efe565b5b6000610f6284828501610f29565b91505092915050565b600073ffffffffffffffffffffffffffffffffffffffff82169050919050565b6000610f9682610f6b565b9050919050565b610fa681610f8b565b82525050565b600081519050919050565b600082825260208201905092915050565b60005b83811015610fe6578082015181840152602081019050610fcb565b60008484015250505050565b6000601f19601f8301169050919050565b600061100e82610fac565b6110188185610fb7565b9350611028818560208601610fc8565b61103181610ff2565b840191505092915050565b61104581610f08565b82525050565b60008115159050919050565b6110608161104b565b82525050565b60006101008201905061107c600083018b610f9d565b818103602083015261108e818a611003565b905081810360408301526110a28189611003565b90506110b1606083018861103c565b6110be608083018761103c565b6110cb60a083018661103c565b6110d860c0830185611057565b6110e560e083018461103c565b9998505050505050505050565b60006110fd82610f6b565b9050919050565b61110d816110f2565b82525050565b600061010082019050611129600083018b611104565b818103602083015261113b818a611003565b9050818103604083015261114f8189611003565b905061115e606083018861103c565b61116b608083018761103c565b61117860a083018661103c565b61118560c0830185611057565b61119260e083018461103c565b9998505050505050505050565b60006020820190506111b4600083018461103c565b92915050565b600080fd5b600080fd5b7f4e487b7100000000000000000000000000000000000000000000000000000000600052604160045260246000fd5b6111fc82610ff2565b810181811067ffffffffffffffff8211171561121b5761121a6111c4565b5b80604052505050565b600061122e610ef4565b905061123a82826111f3565b919050565b600067ffffffffffffffff82111561125a576112596111c4565b5b61126382610ff2565b9050602081019050919050565b82818337600083830152505050565b600061129261128d8461123f565b611224565b9050828152602081018484840111156112ae576112ad6111bf565b5b6112b9848285611270565b509392505050565b600082601f8301126112d6576112d56111ba565b5b81356112e684826020860161127f565b91505092915050565b6000806000806080858703121561130957611308610efe565b5b600085013567ffffffffffffffff81111561132757611326610f03565b5b611333878288016112c1565b945050602085013567ffffffffffffffff81111561135457611353610f03565b5b611360878288016112c1565b935050604061137187828801610f29565b925050606061138287828801610f29565b91505092959194509250565b611397816110f2565b81146113a257600080fd5b50565b6000813590506113b48161138e565b92915050565b600080604083850312156113d1576113d0610efe565b5b60006113df85828601610f29565b92505060206113f0858286016113a5565b9150509250929050565b7f4e487b7100000000000000000000000000000000000000000000000000000000600052602260045260246000fd5b6000600282049050600182168061144157607f821691505b602082108103611454576114536113fa565b5b50919050565b7f43616d706169676e20646f6573206e6f74206578697374000000000000000000600082015250565b6000611490601783610fb7565b915061149b8261145a565b602082019050919050565b600060208201905081810360008301526114bf81611483565b9050919050565b7f4e487b7100000000000000000000000000000000000000000000000000000000600052603260045260246000fd5b7f4f6e6c792063726561746f722063616e20776974686472617700000000000000600082015250565b600061152b601983610fb7565b9150611536826114f5565b602082019050919050565b6000602082019050818103600083015261155a8161151e565b9050919050565b7f476f616c206e6f74207265616368656400000000000000000000000000000000600082015250565b6000611597601083610fb7565b91506115a282611561565b602082019050919050565b600060208201905081810360008301526115c68161158a565b9050919050565b7f46756e647320616c72656164792077697468647261776e000000000000000000600082015250565b6000611603601783610fb7565b915061160e826115cd565b602082019050919050565b60006020820190508181036000830152611632816115f6565b9050919050565b600060408201905061164e600083018561103c565b61165b602083018461103c565b9392505050565b7f43616d706169676e207374696c6c206163746976650000000000000000000000600082015250565b6000611698601583610fb7565b91506116a382611662565b602082019050919050565b600060208201905081810360008301526116c78161168b565b9050919050565b7f476f616c20776173207265616368656400000000000000000000000000000000600082015250565b6000611704601083610fb7565b915061170f826116ce565b602082019050919050565b60006020820190508181036000830152611733816116f7565b9050919050565b7f43616d706169676e20616c726561647920636f6d706c65746564000000000000600082015250565b6000611770601a83610fb7565b915061177b8261173a565b602082019050919050565b6000602082019050818103600083015261179f81611763565b9050919050565b7f4e6f20636f6e747269627574696f6e20666f756e640000000000000000000000600082015250565b60006117dc601583610fb7565b91506117e7826117a6565b602082019050919050565b6000602082019050818103600083015261180b816117cf565b9050919050565b6000606082019050611827600083018661103c565b6118346020830185611104565b611841604083018461103c565b949350505050565b60008190508160005260206000209050919050565b60006020601f8301049050919050565b600082821b905092915050565b6000600883026118ab7fffffffffffffffffffffffffffffffffffffffffffffffffffffffffffffffff8261186e565b6118b5868361186e565b95508019841693508086168417925050509392505050565b6000819050919050565b60006118f26118ed6118e884610f08565b6118cd565b610f08565b9050919050565b6000819050919050565b61190c836118d7565b611920611918826118f9565b84845461187b565b825550505050565b600090565b611935611928565b611940818484611903565b505050565b5b818110156119645761195960008261192d565b600181019050611946565b5050565b601f8211156119a95761197a81611849565b6119838461185e565b81016020851015611992578190505b6119a661199e8561185e565b830182611945565b50505b505050565b600082821c905092915050565b60006119cc600019846008026119ae565b1980831691505092915050565b60006119e583836119bb565b9150826002028217905092915050565b6119fe82610fac565b67ffffffffffffffff811115611a1757611a166111c4565b5b611a218254611429565b611a2c828285611968565b600060209050601f831160018114611a5f5760008415611a4d578287015190505b611a5785826119d9565b865550611abf565b601f198416611a6d86611849565b60005b82811015611a9557848901518255600182019150602085019450602081019050611a70565b86831015611ab25784890151611aae601f8916826119bb565b8355505b6001600288020188555050505b505050505050565b7f4e487b7100000000000000000000000000000000000000000000000000000000600052601160045260246000fd5b6000611b0182610f08565b9150611b0c83610f08565b9250828201905080821115611b2457611b23611ac7565b5b92915050565b6000611b3582610f08565b9150611b4083610f08565b9250828203905081811115611b5857611b57611ac7565b5b92915050565b6000608082019050611b73600083018761103c565b611b806020830186611104565b8181036040830152611b928185611003565b9050611ba1606083018461103c565b95945050505050565b7f43616d706169676e2068617320656e6465640000000000000000000000000000600082015250565b6000611be0601283610fb7565b9150611beb82611baa565b602082019050919050565b60006020820190508181036000830152611c0f81611bd3565b9050919050565b7f436f6e747269627574696f6e206d75737420626520677265617465722074686160008201527f6e20300000000000000000000000000000000000000000000000000000000000602082015250565b6000611c72602383610fb7565b9150611c7d82611c16565b604082019050919050565b60006020820190508181036000830152611ca181611c65565b9050919050565b6000611cb382610f08565b91507fffffffffffffffffffffffffffffffffffffffffffffffffffffffffffffffff8203611ce557611ce4611ac7565b5b60018201905091905056fea26469706673582212205876fb9b26e042ae1ae2b040ade3e04aafa78e51b7ef8d5654b5cf99d12586f364736f6c63430008130033",
  "immutableReferences": {},
  "source": "// SPDX-License-Identifier: MIT\npragma solidity ^0.8.0;\n\ncontract Crowdfunding {\n    struct Campaign {\n        address payable creator;\n        string title;\n        string description;\n        uint256 goal;\n        uint256 deadline;\n        uint256 amountRaised;\n        bool completed;\n        uint256 contributorsCount;\n        mapping(address => uint256) contributions;\n    }\n    \n    Campaign[] public campaigns;\n    \n    event CampaignCreated(uint256 campaignId, address creator, string title, uint256 goal);\n    event ContributionMade(uint256 campaignId, address contributor, uint256 amount);\n    event FundsWithdrawn(uint256 campaignId, uint256 amount);\n    event RefundIssued(uint256 campaignId, address contributor, uint256 amount);\n    \n    function createCampaign(\n        string memory _title,\n        string memory _description,\n        uint256 _goal,\n        uint256 _duration\n    ) public {\n        Campaign storage newCampaign = campaigns.push();\n        newCampaign.creator = payable(msg.sender);\n        newCampaign.title = _title;\n        newCampaign.description = _description;\n        newCampaign.goal = _goal;\n        newCampaign.deadline = block.timestamp + _duration;\n        newCampaign.amountRaised = 0;\n        newCampaign.completed = false;\n        newCampaign.contributorsCount = 0;\n        \n        emit CampaignCreated(campaigns.length - 1, msg.sender, _title, _goal);\n    }\n    \n    function contribute(uint256 _campaignId) public payable {\n        require(_campaignId < campaigns.length, \"Campaign does not exist\");\n        Campaign storage campaign = campaigns[_campaignId];\n        require(block.timestamp < campaign.deadline, \"Campaign has ended\");\n        require(!campaign.completed, \"Campaign already completed\");\n        require(msg.value > 0, \"Contribution must be greater than 0\");\n        \n        if (campaign.contributions[msg.sender] == 0) {\n            campaign.contributorsCount++;\n        }\n        \n        campaign.contributions[msg.sender] += msg.value;\n        campaign.amountRaised += msg.value;\n        \n        emit ContributionMade(_campaignId, msg.sender, msg.value);\n    }\n    \n    function withdrawFunds(uint256 _campaignId) public {\n        require(_campaignId < campaigns.length, \"Campaign does not exist\");\n        Campaign storage campaign = campaigns[_campaignId];\n        require(msg.sender == campaign.creator, \"Only creator can withdraw\");\n        require(campaign.amountRaised >= campaign.goal, \"Goal not reached\");\n        require(!campaign.completed, \"Funds already withdrawn\");\n        \n        campaign.completed = true;\n        uint256 amount = campaign.amountRaised;\n        campaign.creator.transfer(amount);\n        \n        emit FundsWithdrawn(_campaignId, amount);\n    }\n    \n    function refund(uint256 _campaignId) public {\n        require(_campaignId < campaigns.length, \"Campaign does not exist\");\n        Campaign storage campaign = campaigns[_campaignId];\n        require(block.timestamp >= campaign.deadline, \"Campaign still active\");\n        require(campaign.amountRaised < campaign.goal, \"Goal was reached\");\n        require(!campaign.completed, \"Campaign already completed\");\n        \n        uint256 contributedAmount = campaign.contributions[msg.sender];\n        require(contributedAmount > 0, \"No contribution found\");\n        \n        campaign.contributions[msg.sender] = 0;\n        payable(msg.sender).transfer(contributedAmount);\n        \n        emit RefundIssued(_campaignId, msg.sender, contributedAmount);\n    }\n    \n    function getCampaignCount() public view returns (uint256) {\n        return campaigns.length;\n    }\n    \n    function getCampaign(uint256 _campaignId) public view returns (\n        address,\n        string memory,\n        string memory,\n        uint256,\n        uint256,\n        uint256,\n        bool,\n        uint256\n    ) {\n        require(_campaignId < campaigns.length, \"Campaign does not exist\");\n        Campaign storage campaign = campaigns[_campaignId];\n        \n        return (\n            campaign.creator,\n            campaign.title,\n            campaign.description,\n            campaign.goal,\n            campaign.deadline,\n            campaign.amountRaised,\n            campaign.completed,\n            campaign.contributorsCount\n        );\n    }\n    \n    function getContribution(uint256 _campaignId, address _contributor) public view returns (uint256) {\n        require(_campaignId < campaigns.length, \"Campaign does not exist\");\n        return campaigns[_campaignId].contributions[_contributor];\n    }\n}",
  "sourcePath": "/Users/adityamandlik/project/blockfund-project/contracts/Crowdfunding.sol",
  "compiler": {
    "name": "solc",
    "version": "0.8.19+commit.7dd6d404.Emscripten.clang"
  },
  "schemaVersion": "3.4.16",
  "updatedAt": "2025-11-17T21:55:49.536Z",
  "networkType": "ethereum",
  "devdoc": {
    "kind": "dev",
    "methods": {},
    "version": 1
  },
  "userdoc": {
    "kind": "user",
    "methods": {},
    "version": 1
  }
}